:020000040800F2
:10000000200D0020550200085D0200085F02000874
:100010006102000863020008650200080000000099
:10002000000000000000000000000000670200085F
:1000300069020008000000006B0200086D02000861
:100040006F0200086F0200086F0200086F020008CC
:100050006F0200086F0200086F0200086F020008BC
:100060006F0200086F0200086F0200086F020008AC
:100070006F0200086F0200086F0200086F0200089C
:100080006F0200086F0200086F0200086F0200088C
:100090006F0200086F0200086F0200086F0200087C
:1000A0006F0200086F0200086F0200086F0200086C
:1000B0006F0200086F0200086F0200086F0200085C
:1000C0006F0200086F0200086F0200086F0200084C
:1000D0006F0200086F0200086F0200080157000855
:1000E0006F0200086F0200086F0200086F0200082C
:1000F0006F0200086F0200086F0200086F0200081C
:100100006F0200086F0200086F0200086F0200080B
:100110006F0200086F020008BD5500086F0200085A
:100120006F0200086F0200086F0200086F020008EB
:100130006F0200086F0200086F0200086F020008DB
:100140006F0200086F0200086F0200086F020008CB
:100150006F0200086F0200086F0200086F020008BB
:100160006F0200086F0200086F0200086F020008AB
:100170006F0200086F0200086F0200086F0200089B
:100180006F0200086F02000800F002F800F052F859
:100190000AA090E8000C82448344AAF10107DA45E2
:1001A00001D100F047F8AFF2090EBAE80F0013F0E2
:1001B000010F18BFFB1A43F001031847A890000075
:1001C000C8900000103A24BF78C878C1FAD8520706
:1001D00024BF30C830C144BF04680C6070470000C1
:1001E0000023002400250026103A28BF78C1FBD840
:1001F000520728BF30C148BF0B607047662907F01F
:100200009282642900F09280782900F0CB807329D3
:1002100000F0AB84002070471FB507F07AFA00F0B9
:1002200015FD04000020002106F014FDE0601FBD54
:1002300010B510BD00F006FE1146FFF7EDFF05F00A
:1002400019FD00F024FE03B4FFF7F2FF03BC05F034
:1002500088FB00000948804709480047FEE7FEE7A1
:10026000FEE7FEE7FEE7FEE7FEE7FEE7FEE7FEE766
:1002700004480549054A064B7047000055550008DB
:100280008901000820070020200D002020090020FF
:1002900020090020704700000FB4044910B503AADC
:1002A000029800F067FC10BC5DF814FB0000002011
:1002B0000FB41CB5074B06AA7B446946009005980D
:1002C00000F029FC0020694600F038FC1CBC5DF8F9
:1002D00014FB00008108000070B50C460546012A99
:1002E00005D02878800600D5EA69002302E00123C2
:1002F00005E05B1C934202D2E05C0028F9D1A869BA
:10030000E618C01AA861286A184428622846AFF384
:10031000008004E0D5E9012114F8010B9047B442B4
:10032000F8D32846AFF3008070BD00002DE9F041FE
:100330000646002410687529314616A510D0AFF383
:100340000080002802DA404213A507E031688A07DE
:1003500001D512A502E0490704D511A5012401E049
:10036000AFF3008000210A2206F1240709E0B0FB68
:10037000F2FCB0FBF2F302FB1C003030785418465C
:10038000491C0028F3D123462A463046BDE8F041F7
:1003900000F056B9000000002D0000002B00000006
:1003A0002000000070B504460D4621461068AFF3EA
:1003B00000802188090502D50F4A7A4402E00E4ADE
:1003C0007A440E32002104F1240305E000F00F0608
:1003D0000009965D5E54491C0028F7D1207800235F
:1003E000000704D5702D02D009B102231132204636
:1003F000BDE8704000F024B9388B00002DE9F047CB
:100400004FF0000A89460446C0F820A02046E16863
:100410008847002876D0252806D0D4E901219047C6
:10042000206A401C2062F1E7E168204600258847E9
:10043000C4F81CA006460027C4F818A02A2E09D02C
:10044000304605F087FA38B304EB8708303EC8F829
:10045000186019E059F8041B204604EB87029161EB
:10046000E1688847012F064618D1E069002820DAA4
:1004700025F020051DE0D8F8180000EB800006EB01
:1004800040003038C8F818002046E1688847064622
:1004900005F060FA0028EED1012F0AD02E2E08D1E7
:1004A0002046E16888477F1C0646022F45F020055C
:1004B000C4DBA069002803DA404245F00105A061D1
:1004C000E80701D025F01005B6B1A6F141001928C2
:1004D00002D8203645F400654A463146204625605C
:1004E0004D46FFF78BFE58B1012806D0ED1D25F0D3
:1004F000070000F1080989E704E005F1040985E730
:1005000030468AE7206ABDE8F08730B505460B46DD
:100510002A4613F8014B12F8010B08B1A042F8D09B
:100520001CB1002802D06D1CF1E7284630BD10B583
:10053000431C02E010F8011B71B18107FAD14FF0A2
:10054000013202C88C1A8C4314EAC211F9D0C01AC5
:100550000A0603D0C01E10BDC01A10BD0A0401D087
:10056000801E10BD0902FCD0401E10BD032A40F2BF
:10057000308010F0030C00F0158011F8013BBCF145
:10058000020F624498BF11F801CB00F8013B38BF5D
:1005900011F8013BA2F1040298BF00F801CB38BF6B
:1005A00000F8013B11F0030300F0F682083AC0F0B6
:1005B000088051F8043B083A51F804CBA0E8081031
:1005C000F5E7121D5CBF51F8043B40F8043BAFF364
:1005D0000080D20724BF11F8013B11F801CB48BFBE
:1005E00011F8012B24BF00F8013B00F801CB48BFF4
:1005F00000F8012B70474FF000020429C0F0128070
:1006000010F0030C00F0FC82CCF1040CBCF1020FE2
:1006100018BF00F8012BA8BF20F8022BA1EB0C019A
:1006200000F0EEBA5FEAC17C24BF00F8012B00F8AD
:10063000012B48BF00F8012B704770477047704787
:100640002DE9F0470D4699469246044600F12408EC
:100650000168880604D5E06921F01001216000E0FE
:100660000120A84201DD471B00E00027A1697A199B
:1006700002EB0900081AA0612078C00602D42046C7
:10068000AFF30080002608E0D4E901211AF8060043
:100690009047206A401C761C20624E45F4DB20788F
:1006A000C0060AD52046AFF3008006E0D4E9012158
:1006B00030209047206A401C2062381EA7F10107B5
:1006C000F4DC07E0D4E9012118F805009047206A1E
:1006D000401C2062281EA5F10105F3DC2046AFF383
:1006E00000802078000602D50220BDE8F0870120B6
:1006F000FBE770472DE9FF4F0C461E464FF0FF37D2
:100700008BB0D2E90001DDF860800A908A46C1F31F
:100710000A5505B93D46002108464FF00000BAF1E0
:10072000000F00F4400005DA00EB80004FF44001B8
:1007300001EA50004FEA9059B9F1010F00DDB946C6
:100740000A9850EA4A000ED044F61050A5F2FF3540
:1007500045432F14B8F1000F1ED07542291E1EDD2F
:10076000C9F100021CE0B8F1010F4FF0000001D008
:10077000302103E0F24305E02154401CB042FBDB92
:1007800030460022002121540B99C1F80880C1E9AC
:1007900000200FB0BDE8F08FBD1B6D1CDEE74A46A0
:1007A00000DA694206A800F0DBFA06AB93E807001E
:1007B00003AB83E8070050460A9900F0B1FB8DE8CF
:1007C0000700A0F500501F3800900398002D09DDA8
:1007D00042F21F014A46084403A90390684600F00C
:1007E00010FE08E0A0F500504A461F3803A9039008
:1007F000684600F01AFE8DE807000004000C03D0E4
:100800004FF0FF30410800E01046B8F1000F03D070
:100810000022009215461EE0751E05D400F01AFA5B
:10082000303262556D1EF9D5B3460122084302D01D
:1008300000227F1C04E02078302801D100227F1E96
:10084000002A099786D01DE0112D07DA00F002FA80
:10085000303262556D1C50EA0102F5D1084302D0D6
:100860000098C8B10EE00021681E05E0235C625CC0
:1008700063542254401E491C8142F7DBAB46A81B3F
:10088000401E0990002004F80B000B98099AC0F84C
:100890000880C0E9002B7CE711264FF0000859E7DB
:1008A0002DE9F04F88460446D21D22F0070191B091
:1008B000D1E90001CDE90A0105F034F802460B98B0
:1008C000C00F01D02D2007E02068810701D52B2023
:1008D00002E0202101EAC000032A099001D0072A82
:1008E00005DB03464146204600F0FAF90BE120788B
:1008F000800601D5E06900E00620B8F1650F814669
:1009000006D0B8F1660F18D0B8F1670F70D131E09A
:100910000020B9F1110F009001DB112301E009F172
:1009200001030AAA01A90CA8FFF7E4FEDDE90C7097
:10093000002609F10105834647E001204B4600905F
:100940004FF000470AAA01A90CA8FFF7D3FEDDE982
:100950000DB00C995D46002610B909F101000D1883
:10096000B9EB050003D4C0F1FF3609F10105A5EB91
:1009700009002BE0B9F1010F01DA4FF00109002065
:10098000B9F1110F0090484601DD112300E0034644
:100990000AAA01A90CA8FFF7ADFEDDE90C704D46CF
:1009A00000268346207800070AD4AB4500DA5D466E
:1009B00001A8012D04DD411911F8011C302907D0CF
:1009C0004F4502DA17F1040F04DA012082460FE0E6
:1009D0006D1EEEE7002F02DCED1B3E4403E0781CA9
:1009E000A84200DD7D1CB81B00F1010A4FF0004752
:1009F0002078000703D4AA4501DB4FF0FF3A00211D
:100A0000B7F1004F0DF143088DF8431024D00220B8
:100A10002B23002F01DA7F422D230A21021EA0F191
:100A2000010000DC5FB197FBF1FC97FBF1F201FBE9
:100A30001C7C17460CF1300C08F801CDEEE7A8F14C
:100A4000010003702188090501D5452100E06521D9
:100A5000A0F1010800F8011C09980FA9A1EB0807F3
:100A6000FF1D00B10120411901EBEA70A169384472
:100A7000081A401EA0612078C00602D42046AFF3B9
:100A80000080099828B1D4E901219047206A401CD0
:100A900020622078C00622D52046AFF300801EE0F9
:100AA000002E04DBB34502DD01A8805D00E03020AC
:100AB000D4E901219047206A401C2062761CAAF1EB
:100AC00001005FEA000A0AD100F0C0F8C0680168BE
:100AD000405CD4E901219047206A401C2062281E16
:100AE000A5F10105DCDC07E0D4E9012118F8010BD0
:100AF0009047206A401C2062381EA7F10107F3DCF2
:100B00002046AFF30080032011B043E601694A1C80
:100B100002610878704700B58FB0CDE9013100213E
:100B2000059105497944CDE9031011466846FFF760
:100B300065FC0FB000BD0000E5FFFFFF0A6802F88A
:100B4000010B0A60704710B5436913B1AFF3008021
:100B500001E0FFF7C1FB012010BD127800F1240174
:100B60000A7000224A700122EDE711684FF0FF324F
:100B7000E9E70000074B70B50D467B44FFF7CBFF5C
:100B80000446284604F028FF10B14FF0FF3070BD36
:100B9000204670BD634E000010B5203AC0F00B80B7
:100BA000B1E81850203AA0E81850B1E81850A0E871
:100BB0001850BFF4F5AF5FEA027C24BFB1E81850CB
:100BC000A0E8185044BF18C918C0BDE810405FEA3B
:100BD000827C24BF51F8043B40F8043B08BF7047B7
:100BE000D20728BF31F8023B48BF11F8012B28BFBC
:100BF00020F8023B48BF00F8012B70474FF000027D
:100C000000B5134694469646203922BFA0E80C5002
:100C1000A0E80C50B1F12001BFF4F7AF090728BFDD
:100C2000A0E80C5048BF0CC05DF804EB890028BF59
:100C300040F8042B08BF704748BF20F8022B11F082
:100C4000804F18BF00F8012B704700000048704724
:100C5000E006002030B5B0F10A024FEA900E71F1C3
:100C600000034EEA817EB0EB0E0061EB91014FEA8A
:100C7000101E4EEA017E10EB0E0041EB11114FEAFF
:100C8000102E4EEA016E10EB0E0041EB11214FEADF
:100C9000104E4EEA014E10EB0E0041EB1141401890
:100CA00041F100014FEAD00040EA41704FEAD10122
:100CB00010EB80054FEA810444EA907444EB010490
:100CC0006D1944EB0404521BA3414FF0000348BFCD
:100CD0000A3200D530BD401C41F1000130BD00009A
:100CE0002DE9F0411F46044603260168072A01F456
:100CF000006004DB08B116A505E016A503E008B105
:100D000015A500E015A521F010002060A069C01E07
:100D1000A0610FB1401EA0612046AFF300804FB12B
:100D2000D4E9012138469047206A401C2062C01C4B
:100D3000206206E0206AFAE7D4E9012115F8010BE8
:100D40009047761EF8D22046AFF30080BDE8F081D0
:100D50004E414E006E616E00494E4600696E66005F
:100D60002DE9F047814616468AB0334878440DC8CD
:100D70008DE80D0030487844801C03AC0DC884E831
:100D80000D0041F69B300844372190FBF1F290FBB7
:100D9000F1F5A5F1800501FB12041B3C02D564426C
:100DA000012000E00020DFF890A080460027FA44F0
:100DB000AAF1BE0A0DE0E00709D03246684607EB0B
:100DC00047010AEB810100F030FB8DE80700641059
:100DD0007F1C002CEFD1184F7F44AC3F18E0E80790
:100DE00014D007EB04100DF1180A90E80E008AE801
:100DF0000E00C068F04201D198190890324606A949
:100E000003A800F012FB03AB83E807006D10641C1D
:100E1000002DE4D132466946B8F1000F03A802D094
:100E200000F0EFFA01E000F000FBC9E90001C9F8A9
:100E300008200AB0BDE8F0872C8200000048704707
:100E4000C00600207546FFF7F9FFAE46050069466B
:100E5000534620F00700854618B020B5FFF708FA82
:100E6000BDE820404FF000064FF000074FF00008AB
:100E70004FF0000B21F00701AC46ACE8C009ACE82C
:100E8000C009ACE8C009ACE8C0098D46704710B590
:100E90000446AFF300802046BDE81040FFF7D3B909
:100EA0004FF0013C50F8042B51F8043B9A4221D1F9
:100EB000A2EB0C03934313EACC1317D150F8042B85
:100EC00051F8043B9A4215D1A2EB0C03934313EA69
:100ED000CC130BD150F8042B51F8043B9A4209D1A2
:100EE000A2EB0C03934313EACC13DBD04FF00000CA
:100EF000704700BFD01A01BAB1FA81F101F01801B0
:100F000022FA01F0CB40C1F12001DBB2C0B2C01A1D
:100F10002CFA01F3D11A914311EAC311E6D17047BB
:100F20005FEA400C08BF91F0000F4FEA8C234FEAB4
:100F3000C12243EA51514FEA1C5018BF00F5F0405E
:100F40004FEA300018BF41F000415FEA6C5C00F0EE
:100F50002980BCF1FF3F08BF40F080407047130C70
:100F600006BF12044FF0100C4FF0000C130E04BF1C
:100F700012020CF1080C130F04BF12010CF1040C47
:100F8000930F04BF92000CF1020CD30F04BF520068
:100F90000CF1010C11464FF00002A0F11F00A0EB74
:100FA0000C00704711F0004F08BF704731F000414E
:100FB0003FF4D5AF0B0C06BF09044FF0100C4FF0F7
:100FC000000C0B0E04BF09020CF1080C0B0F04BF40
:100FD00009010CF1040C8B0F04BF89000CF1020C09
:100FE000CB0F04BF49000CF1010CCCF12003A0EBA6
:100FF0000C0022FA03F302FA0CF241EA030100F1B9
:101000000100704720F07F4C80EA030023F07F4707
:10101000ACEB070303F57C5300F0004003F1FF0342
:101020002DE980494FEA154B09B44FEA144325EAEC
:101030000B4E24EA03480FF2042606EB1327490857
:101040003E785FEA320203FB0667C7F5000707FB3D
:1010500006F64FEA54374FEAD64606F1020607FB7A
:10106000066CCCF1005C4FEA1C472CEA074C07FBEE
:1010700006F40CFB06F504EB15464FEA961634BF52
:1010800000204FF000404FEAD13706FB07FC4FEA43
:101090001C4C0CFB0BF7D21B03FB0CF761EB07019D
:1010A0000CFB0EF7B0EB074072EB17420CFB08F796
:1010B00034BFA2EB0742B2EB074261EB17414FEAA4
:1010C0000C444FEA910706FB07FC4FEA1C4C0CFB53
:1010D0000BF7B0EBC74072EB573203FB0CF734BF92
:1010E000A2EBC742B2EBC74261EB57310CFB0EF7E4
:1010F000B0EBC70072EB57720CFB08F734BFA2EBE2
:10110000C702B2EBC70261EB5771039F4FEA8161DF
:1011100041EA921104EBCC044FEAD1374FEA8262E4
:1011200006FB07FC42EA90124FEA80604FEA1C4C33
:101130000CFB0BF7D21B03FB0CF761EB07010CFB5D
:101140000EF7B0EB074072EB17420CFB08F734BF09
:10115000A2EB0742B2EB074261EB17414FEA8C5515
:101160004FEA910704EB9C2406FB07FC4FEA1C4C5A
:101170000CFB0BF7B0EBC74072EB573203FB0CF7DD
:1011800034BFA2EBC742B2EBC74261EB57310CFB55
:101190000EF7B0EBC70072EB57720CFB08F734BFC9
:1011A000A2EBC702B2EBC70261EB577115EB4C25FE
:1011B0004FEA816141EA92114FEA82624FEAD137E8
:1011C00042EA901206FB07FC44F100044FEA8060FB
:1011D0004FEA1C4C0CFB0BF7D21B03FB0CF761EB2B
:1011E00007010CFB0EF7B0EB074072EB17420CFB4C
:1011F00008F734BFA2EB0742B2EB074261EB17419D
:1012000015EB1C154FEA813141EA92414FEA8232D7
:1012100042EA90424FEA80304FEA0C7644F10004F3
:1012200048EA03434EEA0B484FF0000EB2EB080CBD
:1012300071EB030724BF624639464EEB0E0E4FF0AA
:10124000000B0018524149414BEB0B0BB2EB080C61
:1012500071EB03077BF1000B24BF624639464EEB6E
:101260000E0E4FF0000B0018524149414BEB0B0B97
:10127000B2EB080C71EB03077BF1000B24BF624655
:1012800039464EEB0E0E51EA020718BF46F0010632
:1012900016EB0E7655F1000254F1000103D5BDE8BE
:1012A0008901BDE80088BDE88901BDE80048B6199C
:1012B000524141EB0101A3F10103704780807F7E21
:1012C0007D7C7B7A797877767675747372717170BC
:1012D0006F6E6E6D6C6C6B6A6A696868676666656E
:1012E0006464636362616160605F5F5E5E5D5D5CFC
:1012F0005C5B5B5A5A59595858575756565555556D
:101300005454535352525251515050504F4F4F4ECC
:101310004E4D4D4D4C4C4C4B4B4B4A4A4A4949491A
:10132000484848474747474646464545454444445C
:10133000444343434342424242414141002B26D46D
:10134000770021D01CB54FEA370703B44FF01000E7
:101350004FF010014FF000000FBCBDE810400BF142
:10136000010BBBF1010F08BF5FEA170722BF12F1A3
:10137000010211F101014FF0004143F1000300F0BF
:10138000004043EA00007047F9D35708DAE746EA1D
:10139000064613F1400F4FEA16461FDD13F1200FEA
:1013A000DFBF16430A46002120335B42C8D0C3F199
:1013B000200746EA064602FA07F74FEA164646EACB
:1013C0000706C3F1200722FA03F201FA07F721FA10
:1013D00003F14FF0000342EA0702B1E746EA0206D2
:1013E00046EA06464FEA164646EA0106BCBF46EA0A
:1013F0000646360C4FF000034FF000024FF000019C
:101400009EE72DE9C048934630B491E8380007C8FC
:1014100031EA400C48BF34EA430C03D5FFF7F2FD34
:10142000FFF78CFFF0BCBDE800882DE9C04893466B
:1014300030B491E8380007C810F0804F08BF13F0AF
:10144000804F03D100F005F8FFF778FFF0BCBDE84E
:10145000008820F07F4780EA030023F07F4C07EBF1
:101460000C03A3F57C5300F00040A3F1FE0392F0BF
:10147000000F00F0B38095F0000F00F077802DE9A9
:1014800001494FEA11404FEA144621EA004800FBA7
:1014900006FC24EA064708FB06F607FB08F800FBF3
:1014A00007F718EB06484CEB164C4FEA124B18EBBB
:1014B00007484FEA15464CEB174022EA0B4E0BFB50
:1014C00006FC25EA06470EFB06F607FB0EFE0BFBA5
:1014D00007F71EEB064E4CEB164C4FF000061EEBCA
:1014E000074E4CEB174B18EB0B0840F1000018EBC4
:1014F0000E0B58EB000840F100008F1A4FF000016E
:101500003CBFC943661B14BFB5EB040C00213CBFB4
:10151000C943F61B4FEA17444EEA8E0E27EA0445EC
:101520004FEA1C4704FB07622CEA074C05FB07F750
:101530000CFB05F604FB0CFC16EB074642EB1742CE
:1015400016EB0C4642EB1C421BEB060658EB020264
:10155000414146EA9E0601D5BDE80189B6195241CE
:1015600041EB0101A3F10103BDE801894FEA1445F4
:101570004FEA114724EA054621EA074C05FB07F428
:1015800006FB07F70CFB06F105FB0CFC11EB074112
:1015900044EB17444FEA124711EB0C4144EB1C4457
:1015A00022EA074C05FB07F206FB07F70CFB06F6E1
:1015B00005FB0CFC16EB074642EB174216EB0C46FC
:1015C00042EB1C456A1854F1000148BF7047B61938
:1015D000524141EB0101A3F10103704795F0000F67
:1015E00037D04FEA11424FEA144721EA024624EA73
:1015F000074C02FB07F106FB07F70CFB06F402FBA6
:101600000CFC14EB074441EB17414FEA154714EB70
:101610000C4441EB1C4125EA074C02FB07F506FB95
:1016200007F70CFB06F602FB0CFC16EB074645EB36
:10163000174516EB0C4645EB1C42121951F10001FF
:1016400048BF7047B619524141EB0101A3F10103B4
:1016500070474FEA14454FEA114724EA054621EA4C
:10166000074C05FB07F106FB07F70CFB06F24FF0F2
:10167000000605FB0CFC12EB074241EB174112EB95
:101680000C4251EB1C4148BF7047921841EB0101DD
:10169000A3F10103704721B1826842F00102826028
:1016A00003E0826822F00102826070470021084A4C
:1016B0001168084A1140D0E900231A4383681A438D
:1016C000C3681A431143044AC2F804137047000068
:1016D00004230140E030FCFF002001400146C86CBB
:1016E00080B270470246002013680B400BB1012006
:1016F00000E000207047000030B5024600200023C3
:101700005068104C20400D790C6844EA05242043B1
:10171000506090680C4C2040D1E903542C438D68F4
:101720002C434D7944EA450420439060D06A20F46C
:1017300070000C7D641EE4B2234340EA0350D06283
:1017400030BD0000FFFEFFFCFDF7FFC0F0B5044612
:101750000D4600200021092D11DDE068A5F10A06E3
:1017600006EB4607072606FA07F18843A5F10A06A5
:1017700006EB460603FA06F10843E0600CE0206938
:1017800005EB4507072606FA07F1884305EB4506F2
:1017900003FA06F108432061072A0FDA606B561E30
:1017A00006EB86071F2606FA07F18843561E06EB4E
:1017B000860605FA06F10843606322E00D2A0FDA77
:1017C000206BD61F06EB86071F2606FA07F1884313
:1017D000D61F06EB860605FA06F10843206310E0E3
:1017E000E06AA2F10D0606EB86071F2606FA07F14E
:1017F0008843A2F10D0606EB860605FA06F10843BA
:10180000E062F0BD816841F0804181607047000076
:1018100000B58BB00121880203F0B0FC01218802E1
:1018200003F0BCFC00214FF4806003F0B7FC002003
:1018300007900A9009904FF48030089007A8FFF7AE
:1018400035FF002001908DF808008DF80900039005
:10185000059001208DF8180001A90448FFF74CFFFE
:1018600001210248FFF717FF0BB000BD0022014025
:101870000146C8B270470146C1F307207047000017
:101880002DE9F05F81468A4690464846FEF74FFEB6
:1018900007465046FEF74BFE05464046FEF747FE1C
:1018A000064600209749888107F10C00A91C0144D5
:1018B000B01C0C181021934882898089401C914BE0
:1018C000988118468068815400BF2046E21704EBD7
:1018D0005262D211A4EBC212D1B2E21704EB5262EF
:1018E000D411002C01DD41F0800186488289808975
:1018F000401C844B9881184680688154002CE4DC9D
:101900000021184682898089401C98811846806889
:1019100081540422184681898089401C9881184688
:10192000806842544D21184682898089401C9881E4
:101930001846806881545122184681898089401C4C
:1019400098811846806842545421184682898089BB
:10195000401C988118468068815418468289808985
:10196000401C988118468068815404211846828959
:101970008089401C9881184680688154C22118468D
:1019800082898089401C9881184680688154002192
:10199000184682898089401C988118468068815445
:1019A0003222184681898089401C988118468068B7
:1019B00042543846FFF75FFF52498A898989491C9A
:1019C000504B99811946896888543846FFF750FF73
:1019D0004C498A898989491C4A4B998119468968E9
:1019E0008854194689681A46928988183A464946A1
:1019F000FEF7BCFD43488089384442498881002D68
:101A000025DD2846FFF737FF3E498A898989491C29
:101A10003C4B99811946896888542846FFF728FF6E
:101A200038498A898989491C364B998119468968C0
:101A30008854194689681A46928988182A46514658
:101A4000FEF794FD2F48808928442E498881002E76
:101A500025DD3046FFF70FFF2A498A898989491C0D
:101A6000284B99811946896888543046FFF700FF52
:101A700024498A898989491C224B99811946896898
:101A80008854194689681A46928988183246414610
:101A9000FEF76CFD1B48808930441A498881194B38
:101AA000998998689A6A90474FF0000B0AE00120E4
:101AB00003F059FF0BF1010080B28346B0F5FA7FC5
:101AC00000DD04E0104890F8C8000028EFD000BF07
:101AD0000D4890F8C80090B100200B4981F8C8006B
:101AE0000846007809490978884208D106484078B4
:101AF00006494978884202D10120BDE8F09F0020C4
:101B0000FBE70000DC000020200100202A7700080D
:101B100010B503480221826A0248904710BD0000B8
:101B2000DC0000202E77000851B18200A2F1C042F3
:101B3000126842F001038200A2F1C042136009E082
:101B40008200A2F1C0421268034B1A408300A3F145
:101B5000C0431A6070470000FEFF0F00D0E9011279
:101B60001143C268114302691143426911438269FA
:101B70001143C2691143026A1143426A1143826AE6
:101B80001143C26A1143026B114302689200A2F131
:101B9000C0421160816808290BD101688900A1F158
:101BA000C041096841F0400201688900A1F1C041CB
:101BB0000A60416B0968426B526841EA0211426B4C
:101BC000926841EA0221426B928941EA0241426BEA
:101BD000128A41EA0251426B127D41EA0261426B74
:101BE000926911430268521C9200A2F1C042116036
:101BF000C16AB1F5804F1BD1816B0968826B526855
:101C000041EA0211826B926841EA0221826B128AD8
:101C100041EA0251826B127D41EA0261826B926954
:101C2000114302689200A2F1C042C2F8041107E019
:101C30006FF0704201688900A1F1C041C1F8042130
:101C40007047F0B50A4600210023002400BF3DE0A4
:101C5000012505FA01F3156805EA03049C4234D115
:101C600005684F000326BE40B543056015794E0058
:101C7000B5400668354305601579012D02D0157908
:101C8000022D16D185684F000326BE40B5438560FE
:101C900055794E00B5408668354385604568012614
:101CA0008E40B5434560456896798E40B6B235435F
:101CB0004560C5684F000326BE40B543C560D57971
:101CC0004E00B540C6683543C560491C1029BFD3D6
:101CD000F0BDF0B5002300244D07ED0E02FA05F328
:101CE000CE1000F1200555F826504E07F70E0F26AE
:101CF000BE40B543CF1000F1200646F82750CE1065
:101D000000F1200555F8265045EA0304CE1000F1F5
:101D1000200545F82640F0BD0246002013690B401F
:101D20000BB1012000E00020704741837047018320
:101D30007047000010B504460723012221460848D9
:101D4000FFF704FD0648FFF75DFD00BF02210448D0
:101D5000FFF7C8FC0028F9D00148FFF7BFFC10BD11
:101D60000022014010B5034C2060A180A260A38135
:101D700010BD0000DC00002070B5044600260948B4
:101D80000588408845430021084602F0ADFE03F077
:101D900079F800BF02E004480480761CAE42FAD312
:101DA00070BD0000B20600208000006C10B5044633
:101DB00049488471002C45D1F020474908804FF4F0
:101DC000A07048800846808845F21051884210D1A2
:101DD0004FF43050404908814FF4285048814FF467
:101DE0002C5088814FF4F07008804FF44870488080
:101DF0001AE03948808841F6631188420DD12C20C1
:101E0000354908812B2048812A2088814FF4F070C1
:101E100008804FF44870488006E02C202E49088145
:101E20002A2048812B2088812B48808845F2103158
:101E300088424CD14FF4A070274908804FF4F070CD
:101E4000488044E04FF4A07023490880F020488087
:101E50000846808845F21051884210D14FF4305026
:101E60001D4908814FF4285048814FF42C50888137
:101E70004FF4487008804FF4F07048801AE016481C
:101E8000808841F6631188420DD12C2012490881C7
:101E90002A2048812B2088814FF4487008804FF415
:101EA000F070488006E02C200B4908812A204881E8
:101EB0002B2088810848808845F21031884206D15D
:101EC0004FF4F070044908804FF4A070488000205F
:101ED00002F0F0FC10BD0000B206002030B5044650
:101EE0000D463948808845F21051884220D1364944
:101EF000488902F0BBFF201202F0ACFF3249498949
:101F0000491C88B202F0B2FFE0B202F0A3FF2E49F2
:101F1000888902F0ABFF281202F09CFF2A498989C8
:101F2000491C88B202F0A2FFE8B202F093FF42E03F
:101F30002548808841F66311884228D1224880795B
:101F400020B921480088401E001B84B21E494889E0
:101F500002F08CFF201202F07DFFE0B202F07AFF67
:101F6000201202F077FFE0B202F074FF1649888970
:101F700002F07CFF281202F06DFFE8B202F06AFF67
:101F8000281202F067FFE8B202F064FF13E00E4986
:101F9000488902F06BFF201202F05CFFE0B202F011
:101FA00059FF0949888902F061FF281202F052FFA7
:101FB000E8B202F04FFF04480089044908804FF05E
:101FC000D840A0F8802030BDB20600207E00006C12
:101FD00000B5A1B00020209001217A2003F09EF8E6
:101FE0000121084603F0AAF84FF400401E9001209A
:101FF0008DF87C0000208DF87E0002208DF87D0099
:1020000001208DF87F001EA9FE48FFF71AFE4CF252
:1020100033701E9002208DF87C0000208DF87E0029
:1020200003208DF87D0001208DF87F001EA9F64861
:10203000FFF707FE4FF680701E9002208DF87C009F
:1020400000208DF87E0003208DF87D0001208DF8A2
:102050007F001EA9ED48FFF7F4FD4FF480501E905D
:1020600002208DF87C0000208DF87E0003208DF882
:102070007D0001208DF87F001EA9E548FFF7E1FDF6
:102080004FF480501E9002208DF87C0000208DF8C7
:102090007E0003208DF87D0001208DF87F001EA9B1
:1020A000DC48FFF7CEFD0C220021D748FFF711FED8
:1020B0000C220121D448FFF70CFE0C220421D24847
:1020C000FFF707FE0C220521CF48FFF702FE0C2286
:1020D0000821CD48FFF7FDFD0C220921CA48FFF772
:1020E000F8FD0C220A21C848FFF7F3FD0C220E214F
:1020F000C548FFF7EEFD0C220F21C348FFF7E9FDAD
:102100000C220721C148FFF7E4FD0C220821BF483B
:10211000FFF7DFFD0C220921BC48FFF7DAFD0C2296
:102120000A21BA48FFF7D5FD0C220B21B748FFF76B
:10213000D0FD0C221146B548FFF7CBFD0C220D2136
:10214000B248FFF7C6FD0C220E21B048FFF7C1FDD3
:102150000C220F21AD48FFF7BCFD0C221146AC4804
:10216000FFF7B7FD0C221146AA48FFF7B2FD0F207A
:102170000890002009903C200A9000200B900C90C1
:102180000D900E90092001900020029008200390ED
:102190000020049005900690079006200F900020E4
:1021A0001090119010201290002013901590149010
:1021B000169017904FF480501890002019904FF40B
:1021C00080401A9000201B9008A81C9001A81D9028
:1021D0000FA8FFF7C3FC01210620FFF7A5FC322062
:1021E00003F0C1FBD32002F041FE02F029FB8A4933
:1021F000888002F025FB8849888002F021FB86490F
:102200008880084680884FF6FF7101EA00208249E5
:10221000888002F015FB8049898808437E498880C0
:102220000846808849F2413188427DD0042002F07E
:102230001DFE02F005FB7849888002F001FB76491B
:10224000888002F0FDFA74498880084680884FF63D
:10225000FF7101EA00207049888002F0F1FA6E49AE
:10226000898808436C4988800846808848F2525122
:10227000884203D147F28970674988806648808820
:1022800047F289718842D0D0D42002F0EFFD02F0ED
:10229000D7FA6149888002F0D3FA5F49888002F05A
:1022A000CFFA5D498880084680884FF6FF7101EAC1
:1022B00000205949888002F0C3FA574989880843A9
:1022C000554988800846808845F2103188426BD095
:1022D00055214FF4704002F0DFFDAA214FF20100BA
:1022E00002F0DAFD52214FF2020002F0D5FD082182
:1022F0004FF2030002F0D0FD01214FF2040002F082
:10230000CBFD4FF4454002F0B1FD02F099FA42498D
:102310008880084680884FF6FF7101EA00203E4918
:1023200088804CF2015000E03EE002F09FFD02F098
:1023300087FA39498988084337498880052003F09E
:1023400012FB35488088B0F5004F03D145F210509C
:10235000314988803048808845F21051884223D026
:10236000A12002F083FD02F06BFA2B49888002F075
:1023700067FA29498880084680884FF6FF7101EA8C
:1023800000202549888002F05BFA234989880843A8
:10239000214988800846808845F26171884203D1CE
:1023A00041F663101C4988801B48808849F24131FE
:1023B000884217D01848808847F28971884211D026
:1023C0001548808845F2103188420BD01248808829
:1023D00045F21051884205D00F48808841F66311BC
:1023E00088423BD10D48006820F00F004FF020419B
:1023F000C1F81C010846D0F81C0120F47060C1F837
:102400001C010DE000040240000C024000100240DC
:102410000014024000180240B20600201C0100A077
:102420000846D0F81C0140F00300C1F81C01FE482A
:10243000808847F28971884208D1FC48006840F4DE
:1024400040704FF02041C1F81C0107E0F7480068D8
:1024500040F400704FF02041C1F81C01F24881881F
:10246000F3A0FDF719FFF048808849F24131884216
:102470007ED1CF2002F0FAFC002002F0EBFCC1205C
:1024800002F0E8FC302002F0E5FCED2002F0EEFC6A
:10249000642002F0DFFC032002F0DCFC122002F0DA
:1024A000D9FC812002F0D6FCE82002F0DFFC852078
:1024B00002F0D0FC102002F0CDFC7A2002F0CAFC21
:1024C000CB2002F0D3FC392002F0C4FC2C2002F017
:1024D000C1FC002002F0BEFC342002F0BBFC022054
:1024E00002F0B8FCF72002F0C1FC202002F0B2FCA0
:1024F000EA2002F0BBFC002002F0ACFC002002F05D
:10250000A9FCC02002F0B2FC1B2002F0A3FCC120F9
:1025100002F0ACFC012002F09DFCC52002F0A6FCFC
:10252000302002F097FC302002F094FCC72002F02B
:102530009DFCB72002F08EFC362002F097FC48206C
:1025400002F088FC3A2002F091FC552002F082FC57
:10255000B12002F08BFC002002F07CFC1A2002F07B
:1025600079FCB62002F082FC0A2002F073FC00E045
:1025700097E0A22002F06EFCF22002F077FC00202F
:1025800002F068FC262002F071FC012002F062FCDF
:10259000E02002F06BFC0F2002F05CFC2A2002F02D
:1025A00059FC282002F056FC082002F053FC0E20B3
:1025B00002F050FC082002F04DFC542002F04AFCCE
:1025C000A92002F047FC432002F044FC0A2002F05C
:1025D00041FC0F2002F03EFC002002F03BFC0020FA
:1025E00002F038FC002002F035FC002002F032FC42
:1025F000E12002F03BFC002002F02CFC152002F050
:1026000029FC172002F026FC072002F023FC1120F1
:1026100002F020FC062002F01DFC2B2002F01AFC28
:10262000562002F017FC3C2002F014FC052002F0BA
:1026300011FC102002F00EFC0F2002F00BFC3F20DA
:1026400002F008FC3F2002F005FC0F2002F002FC23
:102650002B2002F00BFC002002F0FCFB002002F01B
:10266000F9FB012002F0F6FB3F2002F0F3FB2A20E9
:1026700002F0FCFB002002F0EDFB002002F0EAFB80
:10268000002002F0E7FBEF2002F0E4FB112002F053
:10269000EDFB782003F067F9292002F0E7FB02F058
:1026A000B3B86148808847F2897188427ED1112091
:1026B00002F0DCFB782003F056F9362002F0D6FB5E
:1026C000002002F0C7FB3A2002F0D0FB052002F008
:1026D000C1FBB22002F0CAFB0C2002F0BBFB0C20B5
:1026E00002F0B8FB002002F0B5FB332002F0B2FB91
:1026F000332002F0AFFBB72002F0B8FB352002F028
:10270000A9FBBB2002F0B2FB322002F0A3FBC020E9
:1027100002F0ACFB0C2002F09DFBC22002F0A6FBF5
:10272000012002F097FBC32002F0A0FB102002F072
:1027300091FBC42002F09AFB202002F08BFBC62004
:1027400002F094FB0F2002F085FBD02002F08EFBFC
:10275000A42002F07FFBA12002F07CFBE02002F02D
:1027600085FBD02002F076FB002002F073FB0220F4
:1027700002F070FB072002F06DFB0A2002F06AFBFA
:10278000282002F067FB322002F064FB442002F0B4
:1027900061FB422002F05EFB062002F05BFB0E2094
:1027A00002F058FB122002F055FB00E061E014201B
:1027B00002F050FB172002F04DFBE12002F056FB27
:1027C000D02002F047FB002002F044FB022002F080
:1027D00041FB072002F03EFB0A2002F03BFB2820D1
:1027E00002F038FB312002F035FB542002F032FBBE
:1027F000472002F02FFB0E2002F02CFB1C2002F0E1
:1028000029FB172002F026FB1B2002F023FB1E20D1
:1028100002F020FB2A2002F029FB002002F01AFB24
:10282000002002F017FB0BE0B20600201C0100A004
:10283000204C43442049443A25780D0A000000000A
:10284000002002F007FBEF2002F004FB2B2002F037
:102850000DFB002002F0FEFA002002F0FBFA01203E
:1028600002F0F8FA3F2002F0F5FA292002F0FEFA11
:1028700015E7FE48808845F21031884240F07C8799
:10288000ED2002F0F3FA012002F0E4FAFE2002F05B
:10289000E1FAEE2002F0EAFADE2002F0DBFA212073
:1028A00002F0D8FAF12002F0E1FA012002F0D2FAA7
:1028B000DF2002F0DBFA102002F0CCFAC42002F094
:1028C000D5FA8F2002F0C6FAC62002F0CFFA002017
:1028D00002F0C0FAE22002F0BDFAE22002F0BAFAF9
:1028E000E22002F0B7FABF2002F0C0FAAA2002F0FC
:1028F000B1FAB02002F0BAFA0D2002F0ABFA0020D3
:1029000002F0A8FA0D2002F0A5FA002002F0A2FAC7
:10291000112002F09FFA002002F09CFA192002F028
:1029200099FA002002F096FA212002F093FA002092
:1029300002F090FA2D2002F08DFA002002F08AFABF
:102940003D2002F087FA002002F084FA5D2002F0B8
:1029500081FA002002F07EFA5D2002F07BFA00206E
:1029600002F078FAB12002F081FA802002F072FAC7
:10297000002002F06FFA8B2002F06CFA002002F0C7
:1029800069FA962002F066FA002002F063FAB2209B
:1029900002F06CFA002002F05DFA002002F05AFA10
:1029A000022002F057FA002002F054FA032002F04D
:1029B00051FA002002F04EFAB32002F057FA00203C
:1029C00002F048FA002002F045FA002002F042FA34
:1029D000002002F03FFA002002F03CFA002002F052
:1029E00039FA002002F036FA002002F033FA002013
:1029F00002F030FA002002F02DFA002002F02AFA4C
:102A0000002002F027FA002002F024FA002002F051
:102A100021FA002002F01EFA002002F01BFA00202A
:102A200002F018FA002002F015FA002002F012FA63
:102A3000002002F00FFA002002F00CFA002002F051
:102A400009FA002002F006FA002002F003FAB4208E
:102A500002F00CFA8B2002F0FDF9002002F0FAF9E6
:102A6000962002F0F7F9002002F0F4F9A12002F01C
:102A7000F1F9002002F0EEF9B52002F0F7F902209A
:102A800002F0E8F9002002F0E5F9032002F0E2F993
:102A9000002002F0DFF9042002F0DCF9002002F04F
:102AA000D9F9B62002F0E2F9002002F0D3F90020B3
:102AB00002F0D0F9B72002F0D9F9002002F0CAF9EB
:102AC000002002F0C7F93F2002F0C4F9002002F014
:102AD000C1F95E2002F0BEF9002002F0BBF96420CB
:102AE00002F0B8F9002002F0B5F98C2002F0B2F93A
:102AF000002002F0AFF9AC2002F0ACF9002002F0A7
:102B0000A9F9DC2002F0A6F9002002F0A3F9702058
:102B100002F0A0F9002002F09DF9902002F09AF94D
:102B2000002002F097F9EB2002F094F9002002F067
:102B300091F9DC2002F08EF9002002F08BF9B82028
:102B400002F094F9002002F085F9002002F082F9E9
:102B5000002002F07FF9002002F07CF9002002F052
:102B600079F9002002F076F9002002F073F90020D4
:102B700002F070F9BA2002F079F9242002F06AF923
:102B8000002002F067F9002002F064F9002002F052
:102B900061F9C12002F06AF9202002F05BF90020FF
:102BA00002F058F9542002F055F9002002F052F9D1
:102BB000FF2002F04FF9002002F04CF9C22002F091
:102BC00055F90A2002F046F9002002F043F90420EA
:102BD00002F040F9002002F03DF9C32002F046F96E
:102BE0003C2002F037F9002002F034F93A2002F0DC
:102BF00031F9002002F02EF9392002F02BF90020E3
:102C000002F028F9372002F025F9002002F022F91D
:102C10003C2002F01FF9002002F01CF9362002F0DF
:102C200019F9002002F016F9322002F013F9002001
:102C300002F010F92F2002F00DF9002002F00AF93D
:102C40002C2002F007F9002002F004F9292002F0FC
:102C500001F9002002F0FEF8262002F0FBF8002027
:102C600002F0F8F8242002F0F5F801E0B2060020A6
:102C7000002002F0EFF8242002F0ECF8002002F02F
:102C8000E9F8232002F0E6F8002002F0E3F83C2007
:102C900002F0E0F8002002F0DDF8362002F0DAF869
:102CA000002002F0D7F8322002F0D4F8002002F021
:102CB000D1F82F2002F0CEF8002002F0CBF82C2023
:102CC00002F0C8F8002002F0C5F8292002F0C2F88E
:102CD000002002F0BFF8262002F0BCF8002002F02D
:102CE000B9F8242002F0B6F8002002F0B3F824204E
:102CF00002F0B0F8002002F0ADF8232002F0AAF8AC
:102D0000002002F0A7F8C42002F0B0F8622002F020
:102D1000A1F8002002F09EF8052002F09BF80020A8
:102D200002F098F8842002F095F8002002F092F862
:102D3000F02002F08FF8002002F08CF8182002F04A
:102D400089F8002002F086F8A42002F083F8002021
:102D500002F080F8182002F07DF8002002F07AF8E6
:102D6000502002F077F8002002F074F80C2002F0F6
:102D700071F8002002F06EF8172002F06BF80020C6
:102D800002F068F8952002F065F8002002F062F881
:102D9000F32002F05FF8002002F05CF8E62002F079
:102DA00059F8002002F056F8C52002F05FF83220F2
:102DB00002F050F8002002F04DF8442002F04AF8EA
:102DC000002002F047F8652002F044F8002002F0ED
:102DD00041F8762002F03EF8002002F03BF888200F
:102DE00002F038F8002002F035F8C62002F03EF874
:102DF000202002F02FF8002002F02CF8172002F01B
:102E000029F8002002F026F8012002F023F8002023
:102E100002F020F8C72002F029F8002002F01AF88A
:102E2000002002F017F8002002F014F8002002F051
:102E300011F8C82002F01AF8002002F00BF8002068
:102E400002F008F8002002F005F8002002F002F875
:102E5000C92002F00BF8002001F0FCFF002001F077
:102E6000F9FF002001F0F6FF002001F0F3FF002041
:102E700001F0F0FF002001F0EDFF002001F0EAFF7B
:102E8000002001F0E7FF002001F0E4FF002001F046
:102E9000E1FF002001F0DEFF002001F0DBFF002059
:102EA00001F0D8FF002001F0D5FF002001F0D2FF93
:102EB000002001F0CFFFE02001F0D8FF162001F044
:102EC000C9FF002001F0C6FF1C2001F0C3FF002055
:102ED00001F0C0FF212001F0BDFF002001F0BAFF8A
:102EE000362001F0B7FF002001F0B4FF462001F0CA
:102EF000B1FF002001F0AEFF522001F0ABFF002037
:102F000001F0A8FF642001F0A5FF002001F0A2FF5E
:102F10007A2001F09FFF002001F09CFF8B2001F040
:102F200099FF002001F096FF992001F093FF002007
:102F300001F090FFA82001F08DFF002001F08AFF32
:102F4000B92001F087FF002001F084FFC42001F0C8
:102F500081FF002001F07EFFCA2001F07BFF0020EE
:102F600001F078FFD22001F075FF002001F072FF20
:102F7000D92001F06FFF002001F06CFFE02001F08C
:102F800069FF002001F066FFF32001F063FF0020DD
:102F900001F060FFE12001F069FF162001F05AFF07
:102FA000002001F057FF1C2001F054FF002001F029
:102FB00051FF222001F04EFF002001F04BFF362090
:102FC00001F048FF002001F045FF452001F042FFDD
:102FD000002001F03FFF522001F03CFF002001F0F3
:102FE00039FF642001F036FF002001F033FF7A2022
:102FF00001F030FF002001F02DFF8B2001F02AFFAF
:10300000002001F027FF992001F024FF002001F0AB
:1030100021FFA82001F01EFF002001F01BFFB920B6
:1030200001F018FF002001F015FFC42001F012FF8D
:10303000002001F00FFFCA2001F00CFF002001F07A
:1030400009FFD22001F006FF002001F003FFD82085
:1030500001F000FF002001F0FDFEE02001F0FAFE8B
:10306000002001F0F7FEF32001F0F4FE002001F053
:10307000F1FEE22001F0FAFE052001F0EBFE002057
:1030800001F0E8FE0B2001F0E5FE002001F0E2FE79
:103090001B2001F0DFFE002001F0DCFE342001F0F7
:1030A000D9FE002001F0D6FE442001F0D3FE00201E
:1030B00001F0D0FE4F2001F0CDFE002001F0CAFE4D
:1030C000612001F0C7FE002001F0C4FE792001F06C
:1030D000C1FE002001F0BEFE882001F0BBFE0020F2
:1030E00001F0B8FE972001F0B5FE002001F0B2FE1D
:1030F000A62001F0AFFE002001F0ACFEB72001F0E9
:10310000A9FE002001F0A6FEC22001F0A3FE0020CF
:1031100001F0A0FEC72001F09DFE002001F09AFE04
:10312000D12001F097FE002001F094FED62001F09E
:1031300091FE002001F08EFEDD2001F08BFE0020CC
:1031400001F088FEF32001F085FE002001F082FEF0
:10315000E32001F08BFE052001F07CFE002001F051
:1031600079FE0A2001F076FE002001F073FE1C209B
:1031700001F070FE002001F06DFE332001F06AFEC8
:10318000002001F067FE442001F064FE002001F001
:1031900061FE502001F05EFE002001F05BFE622027
:1031A00001F058FE002001F055FE782001F052FE9B
:1031B000002001F04FFE882001F04CFE002001F0BD
:1031C00049FE972001F046FE002001F043FEA620B4
:1031D00001F040FE002001F03DFEB72001F03AFE74
:1031E000002001F037FEC22001F034FE002001F083
:1031F00031FEC72001F02EFE002001F02BFED12071
:1032000001F028FE002001F025FED52001F022FE6D
:10321000002001F01FFEDD2001F01CFE002001F067
:1032200019FEF32001F016FE002001F013FEE42049
:1032300001F01CFE012001F00DFE002001F00AFE4D
:10324000012001F007FE002001F004FE022001F041
:1032500001FE002001F0FEFD2A2001F0FBFD002010
:1032600001F0F8FD3C2001F0F5FD002001F0F2FD39
:103270004B2001F0EFFD002001F0ECFD5D2001F09E
:10328000E9FD002001F0E6FD742001F0E3FD0020DF
:1032900001F0E0FD842001F0DDFD002001F0DAFD09
:1032A000932001F0D7FD002001F0D4FDA22001F011
:1032B000D1FD002001F0CEFDB32001F0CBFD0020B8
:1032C00001F0C8FDBE2001F0C5FD002001F0C2FDE7
:1032D000C42001F0BFFD002001F0BCFDCD2001F0B5
:1032E000B9FD002001F0B6FDD32001F0B3FD0020B0
:1032F00001F0B0FDDD2001F0ADFD002001F0AAFDE0
:10330000F32001F0A7FD002001F0A4FDE52001F06D
:10331000ADFD002001F09EFD002001F09BFD00208E
:1033200001F098FD002001F095FD022001F092FDD2
:10333000002001F08FFD292001F08CFD002001F01C
:1033400089FD3C2001F086FD002001F083FD4B202B
:1033500001F080FD002001F07DFD5D2001F07AFD8F
:10336000002001F077FD742001F074FD002001F0D1
:1033700071FD842001F06EFD002001F06BFD9320B3
:1033800001F068FD002001F065FDA22001F062FD62
:10339000002001F05FFDB32001F05CFD002001F092
:1033A00059FDBE2001F056FD002001F053FDC42060
:1033B00001F050FD002001F04DFDCD2001F04AFD4F
:1033C000002001F047FDD32001F044FD002001F072
:1033D00041FDDC2001F03EFD002001F03BFDF3202B
:1033E00001F038FD002001F035FDE62001F03EFD42
:1033F000112001F02FFD002001F02CFD342001F000
:1034000029FD002001F026FD562001F023FD0020BB
:1034100001F020FD762001F01DFD002001F01AFDD5
:10342000772001F017FD002001F014FD662001F067
:1034300011FD002001F00EFD882001F00BFD0020A1
:1034400001F008FD992001F005FD002001F002FDCA
:10345000BB2001F0FFFC002001F0FCFC992001F0F2
:10346000F9FC002001F0F6FC662001F0F3FC0020DE
:1034700001F0F0FC552001F0EDFC002001F0EAFC29
:10348000552001F0E7FC002001F0E4FC452001F0AC
:10349000E1FC002001F0DEFC432001F0DBFC002019
:1034A00001F0D8FC442001F0D5FC002001F0D2FC52
:1034B000E72001F0DBFC322001F0CCFC002001F021
:1034C000C9FC552001F0C6FC002001F0C3FC7620A9
:1034D00001F0C0FC002001F0BDFC662001F0BAFC48
:1034E000002001F0B7FC672001F0B4FC002001F0DF
:1034F000B1FC672001F0AEFC002001F0ABFC87209E
:1035000001F0A8FC002001F0A5FC992001F0A2FC2C
:10351000002001F09FFCBB2001F09CFC002001F08A
:1035200099FC992001F096FC002001F093FC772093
:1035300001F090FC002001F08DFC442001F08AFC99
:10354000002001F087FC562001F084FC002001F0EF
:1035500081FC232001F07EFC002001F07BFC332065
:1035600001F078FC002001F075FC452001F072FCB0
:10357000002001F06FFCE82001F078FC002001F051
:1035800069FC002001F066FC992001F063FC00203A
:1035900001F060FC872001F05DFC002001F05AFC86
:1035A000882001F057FC002001F054FC772001F046
:1035B00051FC002001F04EFC662001F04BFC002085
:1035C00001F048FC882001F045FC002001F042FC9D
:1035D000AA2001F03FFC002001F03CFCBB2001F0E0
:1035E00039FC002001F036FC992001F033FC00206A
:1035F00001F030FC662001F02DFC002001F02AFCD7
:10360000552001F027FC002001F024FC552001F09A
:1036100021FC002001F01EFC442001F01BFC0020D6
:1036200001F018FC442001F015FC002001F012FC10
:10363000552001F00FFC002001F00CFCE92001F006
:1036400015FCAA2001F006FC002001F003FC00207C
:1036500001F000FC002001F0FDFB002001F006FC61
:10366000AA2001F0F7FBCF2001F000FC002001F0C0
:10367000F1FB002001F0EEFB002001F0EBFB00204D
:1036800001F0E8FB002001F0E5FB002001F0E2FB87
:10369000002001F0DFFB002001F0DCFB002001F046
:1036A000D9FB002001F0D6FB002001F0D3FB002065
:1036B00001F0D0FB002001F0CDFB002001F0CAFB9F
:1036C000002001F0C7FB002001F0C4FB002001F046
:1036D000C1FBF02001F0CAFB002001F0BBFB502031
:1036E00001F0B8FB002001F0B5FB002001F0B2FBB7
:1036F000002001F0AFFBF32001F0B8FB002001F047
:10370000A9FBF92001F0B2FB062001F0A3FB102079
:1037100001F0A0FB292001F09DFB002001F09AFBA5
:103720003A2001F0A3FB552001F094FB112001F099
:103730009DFB642002F017F9292001F097FB35204A
:1037400001F094FB002001F085FB512001F08EFB7D
:10375000FF2001F07FFB532001F088FB2C2001F0BB
:1037600079FB552001F082FB822001F073FB2C20B5
:1037700001F07CFB01F048B8FE48808845F210510A
:1037800088427DD155214FF4704001F085FBAA217C
:103790004FF2010001F080FB52214FF2020001F0D4
:1037A0007BFB08214FF2030001F076FB01214FF271
:1037B000040001F071FB0D214FF4304001F06CFB6F
:1037C0000D214BF2010001F067FB0D214BF20200CD
:1037D00001F062FB34214FF4364001F05DFB3421EF
:1037E0004BF2016001F058FB34214BF2026001F012
:1037F00053FB0D214FF4314001F04EFB0D214BF2F4
:10380000011001F049FB0D214BF2021001F044FBC5
:1038100034214FF4374001F03FFB34214BF201706B
:1038200001F03AFB34214BF2027001F035FB00212C
:103830004FF4324001F030FB00214BF2012001F047
:103840002BFB00214BF2022001F026FB24214FF438
:10385000384001F021FB24214BF6010001F01CFB54
:1038600024214BF6020001F017FB01214FF43F40E9
:1038700001F012FB0F214FF4334001F00DFB00E08B
:10388000FDE30F214BF2013001F006FB0F214BF25B
:10389000023001F001FB34214FF4394001F0FCFA11
:1038A00034214BF6011001F0F7FA34214BF60210E7
:1038B00001F0F2FA08214FF4354001F0EDFA082149
:1038C0004BF2015001F0E8FA08214BF2025001F0EE
:1038D000E3FA03214FF4424001F0DEFA24214FF4D1
:1038E0003A4001F0D9FA24214BF6012001F0D4FA34
:1038F00024214BF6022001F0CFFA00214FF43C4086
:1039000001F0CAFA78214BF6014001F0C5FA002116
:103910004BF6024001F0C0FA00214FF43D4001F0A7
:10392000BBFA78214BF6015001F0B6FA00214BF6B4
:10393000025001F0B1FA00214FF43E4001F0ACFA20
:1039400064214BF6016001F0A7FA00214FF45140C9
:1039500001F0A2FA33214DF2011001F09DFA00218D
:103960004DF2021001F098FA34214DF2031001F0EB
:1039700093FA00214DF2041001F08EFA3A214DF233
:10398000051001F089FA00214DF2061001F084FAC9
:103990004A214DF2071001F07FFA00214DF2081084
:1039A00001F07AFA5C214DF2091001F075FA00215C
:1039B0004DF20A1001F070FA81214DF20B1001F066
:1039C0006BFA00214DF20C1001F066FAA6214DF2BF
:1039D0000D1001F061FA00214DF20E1001F05CFAB9
:1039E000E5214DF20F1001F057FA01214DF21010B0
:1039F00001F052FA13214DF2111001F04DFA01219C
:103A00004DF2121001F048FA54214DF2131001F05A
:103A100043FA01214DF2141001F03EFA82214DF2D9
:103A2000151001F039FA01214DF2161001F034FAA7
:103A3000CA214DF2171001F02FFA02214DF2181091
:103A400001F02AFA00214DF2191001F025FA0221A5
:103A50004DF21A1001F020FA01214DF21B1001F075
:103A60001BFA02214DF21C1001F016FA34214DF21E
:103A70001D1001F011FA02214DF21E1001F00CFA96
:103A800067214DF21F1001F007FA02214DF22010BC
:103A900001F002FA84214DF2211001F0FDF902211A
:103AA0004DF2221001F0F8F9A4214DF2231001F09B
:103AB000F3F902214DF2241001F0EEF9B7214DF295
:103AC000251001F0E9F902214DF2261001F0E4F988
:103AD000CF214DF2271001F0DFF902214DF228101D
:103AE00001F0DAF9DE214DF2291001F0D5F90221B9
:103AF0004DF22A1001F0D0F9F2214DF22B1001F015
:103B0000CBF902214DF22C1001F0C6F9FE214DF245
:103B10002D1001F0C1F903214DF22E1001F0BCF976
:103B200010214DF22F1001F0B7F903214DF23010A2
:103B300001F0B2F933214DF2311001F0ADF903215A
:103B40004DF2321001F0A8F96D214DF2331001F061
:103B5000A3F900214FF4524001F09EF933214DF2B8
:103B6000012001F099F900214DF2022001F094F9B1
:103B7000342101E0B20600204DF2032001F08CF95F
:103B800000214DF2042001F087F93A214DF2052081
:103B900001F082F900214DF2062001F07DF94A2161
:103BA0004DF2072001F078F900214DF2082001F0D4
:103BB00073F95C214DF2092001F06EF900214DF2FC
:103BC0000A2001F069F981214DF20B2001F064F91E
:103BD00000214DF20C2001F05FF9A6214DF20D20DD
:103BE00001F05AF900214DF20E2001F055F9E521BE
:103BF0004DF20F2001F050F901214DF2102001F09B
:103C00004BF913214DF2112001F046F901214DF23B
:103C1000122001F041F954214DF2132001F03CF93A
:103C200001214DF2142001F037F982214DF21520C7
:103C300001F032F901214DF2162001F02DF9CA21CF
:103C40004DF2172001F028F902214DF2182001F061
:103C500023F900214DF2192001F01EF902214DF245
:103C60001A2001F019F901214DF21B2001F014F97D
:103C700002214DF21C2001F00FF934214DF21D20DC
:103C800001F00AF902214DF21E2001F005F9672129
:103C90004DF21F2001F000F902214DF2202001F029
:103CA000FBF884214DF2212001F0F6F802214DF2BB
:103CB000222001F0F1F8A4214DF2232001F0ECF8CC
:103CC00002214DF2242001F0E7F8B7214DF2252022
:103CD00001F0E2F802214DF2262001F0DDF8CF21BB
:103CE0004DF2272001F0D8F802214DF2282001F0F2
:103CF000D3F8DE214DF2292001F0CEF802214DF259
:103D00002A2001F0C9F8F2214DF22B2001F0C4F86D
:103D100002214DF22C2001F0BFF8FE214DF22D20A2
:103D200001F0BAF803214DF22E2001F0B5F8102170
:103D30004DF22F2001F0B0F803214DF2302001F0B8
:103D4000ABF833214DF2312001F0A6F803214DF2FA
:103D5000322001F0A1F86D214DF2332001F09CF8E2
:103D600000214FF4534001F097F833214DF2013018
:103D700001F092F800214DF2023001F08DF834216B
:103D80004DF2033001F088F800214DF2043001F0CB
:103D900083F83A214DF2053001F07EF800214DF212
:103DA000063001F079F84A214DF2073001F074F83D
:103DB00000214DF2083001F06FF85C214DF209301E
:103DC00001F06AF800214DF20A3001F065F8812116
:103DD0004DF20B3001F060F800214DF20C3001F093
:103DE0005BF8A6214DF20D3001F056F800214DF29E
:103DF0000E3001F051F8E5214DF20F3001F04CF892
:103E000001214DF2103001F047F813214DF211302D
:103E100001F042F801214DF2123001F03DF8542139
:103E20004DF2133001F038F801214DF2143001F059
:103E300033F882214DF2153001F02EF801214DF2B8
:103E4000163001F029F8CA214DF2173001F024F89C
:103E500002214DF2183001F01FF800214DF2193007
:103E600001F01AF802214DF21A3001F015F8012183
:103E70004DF21B3001F010F802214DF21C3001F020
:103E80000BF834214DF21D3001F006F802214DF2FD
:103E90001E3001F001F867214DF21F3000F0FCFFE9
:103EA00002214DF2203000F0F7FF84214DF2213045
:103EB00000F0F2FF02214DF2223000F0EDFFA421CC
:103EC0004DF2233000F0E8FF02214DF2243000F0E3
:103ED000E3FFB7214DF2253000F0DEFF02214DF265
:103EE000263000F0D9FFCF214DF2273000F0D4FF6B
:103EF00002214DF2283000F0CFFFDE214DF22930B3
:103F000000F0CAFF02214DF22A3000F0C5FFF22175
:103F10004DF22B3000F0C0FF02214DF22C3000F0AA
:103F2000BBFFFE214DF22D3000F0B6FF03214DF214
:103F30002E3000F0B1FF10214DF22F3000F0ACFF19
:103F400003214DF2303000F0A7FF33214DF2313024
:103F500000F0A2FF03214DF2323000F09DFF6D21F1
:103F60004DF2333000F098FF00214FF4544000F040
:103F700093FF33214DF2014000F08EFF00214DF2FE
:103F8000024000F089FF34214DF2034000F084FF2D
:103F900000214DF2044000F07FFF3A214DF2054030
:103FA00000F07AFF00214DF2064000F075FF4A2133
:103FB0004DF2074000F070FF00214DF2084000F084
:103FC0006BFF5C214DF2094000F066FF00214DF2CD
:103FD0000A4000F061FF81214DF20B4000F05CFFD0
:103FE00000214DF20C4000F057FFA6214DF20D408C
:103FF00000F052FF00214DF20E4000F04DFFE52190
:104000004DF20F4000F048FF01214DF2104000F04A
:1040100043FF13214DF2114000F03EFF01214DF20C
:10402000124000F039FF54214DF2134000F034FFEC
:1040300001214DF2144000F02FFF82214DF2154076
:1040400000F02AFF01214DF2164000F025FFCA21A1
:104050004DF2174000F020FF02214DF2184000F011
:104060001BFF00214DF2194000F016FF02214DF216
:104070001A4000F011FF01214DF21B4000E005E362
:1040800000F00AFF02214DF21C4000F005FF342130
:104090004DF21D4000F000FF02214DF21E4000F0E5
:1040A000FBFE67214DF21F4000F0F6FE02214DF2AB
:1040B000204000F0F1FE84214DF2214000F0ECFEA2
:1040C00002214DF2224000F0E7FEA4214DF22340F0
:1040D00000F0E2FE02214DF2244000F0DDFEB721A7
:1040E0004DF2254000F0D8FE02214DF2264000F0AE
:1040F000D3FECF214DF2274000F0CEFE02214DF23B
:10410000284000F0C9FEDE214DF2294000F0C4FE37
:1041100002214DF22A4000F0BFFEF2214DF22B4069
:1041200000F0BAFE02214DF22C4000F0B5FEFE2157
:104130004DF22D4000F0B0FE03214DF22E4000F074
:10414000ABFE10214DF22F4000F0A6FE03214DF2F0
:10415000304000F0A1FE33214DF2314000F09CFED2
:1041600003214DF2324000F097FE6D214DF23340B5
:1041700000F092FE00214FF4554000F08DFE3321F7
:104180004DF2015000F088FE00214DF2025000F087
:1041900083FE34214DF2035000F07EFE00214DF2EB
:1041A000045000F079FE3A214DF2055000F074FE03
:1041B00000214DF2065000F06FFE4A214DF20750EB
:1041C00000F06AFE00214DF2085000F065FE5C210F
:1041D0004DF2095000F060FE00214DF20A5000F04F
:1041E0005BFE81214DF20B5000F056FE00214DF296
:1041F0000C5000F051FEA6214DF20D5000F04CFE87
:1042000000214DF20E5000F047FEE5214DF20F5017
:1042100000F042FE01214DF2105000F03DFE13214E
:104220004DF2115000F038FE01214DF2125000F015
:1042300033FE54214DF2135000F02EFE01214DF2B9
:10424000145000F029FE82214DF2155000F024FE9A
:1042500001214DF2165000F01FFECA214DF21750F9
:1042600000F01AFE02214DF2185000F015FE002158
:104270004DF2195000F010FE02214DF21A5000F0DC
:104280000BFE01214DF21B5000F006FE02214DF203
:104290001C5000F001FE34214DF21D5000F0FCFDD9
:1042A00002214DF21E5000F0F7FD67214DF21F5024
:1042B00000F0F2FD02214DF2205000F0EDFD8421CE
:1042C0004DF2215000F0E8FD02214DF2225000F0A5
:1042D000E3FDA4214DF2235000F0DEFD02214DF25A
:1042E000245000F0D9FDB7214DF2255000F0D4FD47
:1042F00002214DF2265000F0CFFDCF214DF2275084
:1043000000F0CAFD02214DF2285000F0C5FDDE216B
:104310004DF2295000F0C0FD02214DF22A5000F06C
:10432000BBFDF2214DF22B5000F0B6FD02214DF203
:104330002C5000F0B1FDFE214DF22D5000F0ACFDEF
:1043400003214DF22E5000F0A7FD10214DF22F5009
:1043500000F0A2FD03214DF2305000F09DFD33210D
:104360004DF2315000F098FD03214DF2325000F033
:1043700093FD6D214DF2335000F08EFD00214FF47E
:10438000564000F089FD33214DF2016000F084FDBC
:1043900000214DF2026000F07FFD34214DF20360F8
:1043A00000F07AFD00214DF2046000F075FD3A2125
:1043B0004DF2056000F070FD00214DF2066000F046
:1043C0006BFD4A214DF2076000F066FD00214DF2C1
:1043D000086000F061FD5C214DF2096000F05CFDB9
:1043E00000214DF20A6000F057FD81214DF20B6073
:1043F00000F052FD00214DF20C6000F04DFDA621B1
:104400004DF20D6000F048FD00214DF20E6000F00D
:1044100043FDE5214DF20F6000F03EFD01214DF21C
:10442000106000F039FD13214DF2116000F034FDF1
:1044300001214DF2126000F02FFD54214DF2136066
:1044400000F02AFD01214DF2146000F025FD8221CB
:104450004DF2156000F020FD01214DF2166000F0D4
:104460001BFDCA214DF2176000F016FD02214DF22E
:10447000186000F011FD00214DF2196000F00CFDF4
:1044800002214DF21A6000F007FD01214DF21B6080
:1044900000F002FD02214DF21C6000F0FDFC342111
:1044A0004DF21D6000F0F8FC02214DF21E6000F09C
:1044B000F3FC67214DF21F6000F0EEFC02214DF28B
:1044C000206000F0E9FC84214DF2216000F0E4FC62
:1044D00002214DF2226000F0DFFCA4214DF22360A6
:1044E00000F0DAFC02214DF2246000F0D5FCB72187
:1044F0004DF2256000F0D0FC02214DF2266000F064
:10450000CBFCCF214DF2276000F0C6FC02214DF21A
:10451000286000F0C1FCDE214DF2296000F0BCFCF7
:1045200002214DF22A6000F0B7FCF2214DF22B601F
:1045300000F0B2FC02214DF22C6000F0ADFCFE2137
:104540004DF22D6000F0A8FC03214DF22E6000F02A
:10455000A3FC10214DF22F6000F09EFC03214DF2D0
:10456000306000F099FC33214DF2316000F094FC92
:1045700003214DF2326000F08FFC6D214DF233606B
:1045800000F08AFC55214FF4704000F085FCAA2110
:104590004FF2010000F080FC52214FF2020000F0C7
:1045A0007BFC08214FF2030000F076FC00214FF263
:1045B000040000F071FCCC214FF4314000F06CFCA1
:1045C00000214BF2011000F067FC05214FF436404A
:1045D00000F062FC70214FF4374000F05DFC702168
:1045E0004BF2017000F058FC01214FF4384000F00C
:1045F00053FC03214BF6010000F04EFC03214BF667
:10460000020000F049FC03214BF6030000F044FCDB
:1046100002214FF43C4000F03FFC00214BF60140EA
:1046200000F03AFC00214BF6024000F035FCD021AE
:104630004FF4494000F030FC02214CF6011000F02C
:104640002BFC50214CF6021000F026FC50214CF6B9
:10465000031000F021FC50214CF6041000F01CFC6B
:1046600000214FF4545000F017FC55214FF46850CE
:1046700000F012FC4FF4885000F0F8FB782001F0B5
:104680008EF94FF4245000F0F1FBBDE064488088BF
:1046900041F663118842F8D1E22000F0E7FB1D20CB
:1046A00000F0D8FB022000F0D5FB042000F0D2FB84
:1046B000642001F074F9E02000F0D8FB012000F044
:1046C000C9FB0A2001F04FF9E02000F0CFFB0320E6
:1046D00000F0C0FB0C2001F046F9012000F0C6FB01
:1046E0000A2001F040F9E62000F0C0FB2F2000F086
:1046F000B1FBFF2000F0AEFBFF2000F0ABFBB020D1
:1047000000F0B4FB202000F0A5FB002000F0A2FB8D
:10471000032000F09FFB40F21F3000F09BFB0120C4
:1047200000F098FB40F2DF1000F094FB002000F056
:1047300091FBB42000F09AFB042000F08BFB40F2C8
:104740001F4000F087FB002000F084FB2E2000F0CB
:1047500081FB002000F07EFB002000F07BFB0020AE
:1047600000F078FB002000F075FBB62000F07EFB27
:10477000022000F06FFB4FF4037000F06BFB002091
:1047800000F068FB172000F065FB152000F062FBCD
:10479000002000F05FFB002000F05CFBF02000F048
:1047A00065FB032000F056FB292000F05FFBD020C2
:1047B00000F05CFB002000F04DFBBE2000F056FB3B
:1047C000052000F047FBFE2000F044FB012000F034
:1047D00041FB002000F03EFB002000F03BFB0020EE
:1047E00000F038FBB82000F041FB032000F032FB62
:1047F000012000F02FFBBA2000F038FB012000F070
:1048000029FB642000F026F80020FDF7CFFA0120F4
:10481000044908604FF6FF70FDF7AEFA21B000BD05
:10482000B2060020BC82404210B50246012000E0E2
:1048300050430B1EA1F10104E1B2F9D110BD0000FB
:1048400008B5034800880090BDF8000008BD0000CE
:104850008000006C70B52DED048B0446BE2000F086
:1048600005FB052000F0F6FA204602F074FC41EC4E
:10487000190B9FED0E0B53EC102B02F0BBFC41EC1F
:10488000180B02F03BFC85B2284600F0E3FA012049
:1048900000F0E0FAFF2000F0DDFA002000F0DAFA84
:1048A000002000F0D7FABDEC048B70BD666666662A
:1048B00066660440F0B505460024002789488079E3
:1048C000012805D18748808841F66311884208D1C4
:1048D00084488079F0B98348808841F66311884222
:1048E00018D1082D15D2DFE805F00406080A0C0ED1
:1048F000101206250DE007250BE0042509E005252B
:1049000007E0012505E0002503E0032501E002257D
:1049100000BF00BF082D1CD2DFE805F00406090C1B
:104920000F12151800BF14E044F0800411E044F0A9
:1049300040040EE044F0C0040BE044F0200408E022
:1049400044F0600405E044F0A00402E044F0E00418
:1049500000BF00BF6348808845F21051884202D1F1
:104960004FF4585700E036275E48808849F24131BD
:10497000884205D05B48808847F28971884201D11E
:1049800044F008042146384600F086FA55488088ED
:1049900041F6631188421DD004F0200068B15148EF
:1049A000008850494988884214DA4E480688408871
:1049B0004C490880084646800CE04A48008849492E
:1049C0004988884206DD474806884088454908806E
:1049D000084646804348808845F21051884252D1AB
:1049E0004049488900F042FA002000F033FA3D497E
:1049F0004989491C88B200F039FA002000F02AFAEF
:104A000038494989891C88B200F030FA354909884B
:104A1000491EC1F30F2000F01DFA32494989C91C13
:104A200088B200F023FA2F490978491EC8B200F075
:104A300011FA2C49888900F019FA002000F00AFACE
:104A400028498989491C88B200F010FA002000F03A
:104A500001FA24498989891C88B200F007FA2149A2
:104A60004988491EC1F30F2000F0F4F91D498989D6
:104A7000C91C88B200F0FAF91A498978491EC8B2EF
:104A800000F0E8F92DE01749488900F0EFF900201F
:104A900000F0E0F9002000F0DDF912490988491E14
:104AA000C1F30F2000F0D6F90E490978491EC8B2AB
:104AB00000F0D0F90B49888900F0D8F9002000F007
:104AC000C9F9002000F0C6F906494988491EC1F31A
:104AD0000F2000F0BFF903498978491EC8B200F0E1
:104AE000B9F9F0BDB206002010B502460C464548A3
:104AF000808841F66311884247D142488079A8B93D
:104B000040480088401E801A82B23E49488900F021
:104B1000ADF9002000F09EF9002000F09BF9101282
:104B200000F098F9D0B200F095F916E035494889BF
:104B300000F09CF9101200F08DF9D0B200F08AF963
:104B400030490988491EC1F30F2000F083F92D492F
:104B50000978491EC8B200F07DF92A49888900F019
:104B600085F9201200F076F9E0B200F073F92549DA
:104B70004988491EC1F30F2000F06CF9214989785A
:104B8000491EC8B200F066F93AE01E48808845F236
:104B90001051884220D11B49488900F067F9101252
:104BA00000F058F917494989491C88B200F05EF9AC
:104BB000D0B200F04FF91349888900F057F920125C
:104BC00000F048F90F498989491C88B200F04EF974
:104BD000E0B200F03FF913E00A49488900F046F9D5
:104BE000101200F037F9D0B200F034F90549888985
:104BF00000F03CF9201200F02DF9E0B200F02AF9A3
:104C000010BD0000B20600202DE9F84F80460E4688
:104C100017461C46B3462046E31704EB5373DB10DC
:104C200021464FEAE47C04EB5C7C4FEAEC0CA4EBFD
:104C3000CC0CBCF1000F02D04FF0010C01E04FF0A2
:104C4000000C6344224604EBD27C4FEA6C0C03FB5D
:104C50000CF3DBB20093A7F12000C7B2002556E0A9
:104C60000C2C07D107EB47002B4901EB800010F813
:104C7000059013E0102C05D1284800EB071010F820
:104C800005900BE0182C07D107EBC700244901EB76
:104C9000800010F8059001E0BDE8F88F4FF0000AA1
:104CA0002FE009F0800030B11E48028831464046AE
:104CB000FDF714F907E00A9828B91B480288314625
:104CC0004046FDF70BF94FEA49604FEA1069701C46
:104CD00086B216484088B04200DCDDE7A6EB0B0048
:104CE000A0420AD15E4608F101001FFA80F80F4881
:104CF0000088404500DCCFE706E00AF1010000F043
:104D0000FF0ABAF1080FCCDB00BF681CC5B20098DF
:104D10008542A5DB00BFBFE736770008AA7B000805
:104D20009A8100080A0100200C010020B206002030
:104D30002DE9F84704460D4690469946DDE9096796
:104D400004F0FF0A08EB04001FFA80F809EB0500E5
:104D50001FFA80F916E0444502DB5446A81985B2D3
:104D60004D4500DB14E0002000903A783346294698
:104D70002046FFF749FF304606EBD07104EB610196
:104D80008CB27F1C38787E2802DC38782028E2DA62
:104D900000BFBDE8F8872DE9FF4F82B00646924676
:104DA0001F46DDE90F480020019000254DE0781BEB
:104DB000401EC1B20A20FFF737FDBAFBF0F00A210E
:104DC000B0FBF1F201FB1209019850BB781EA8421A
:104DD00027DDB9F1000F22D108F0800078B108F08A
:104DE0000100A34604EBDB71491001FB0561009053
:104DF00088B2234630220399FFF706FF0EE008F041
:104E00000100A34604EBDB71491001FB0561009032
:104E100088B2234620220399FFF7F6FE13E0012013
:104E2000019008F00100A34604EBDB71491001FB7F
:104E30000561009088B209F13001CAB22346039996
:104E4000FFF7E2FE00BF681CC5B2BD42AFDB06B093
:104E5000BDE8F08F01B5BDF800000090BDF800007E
:104E60000149088008BD00008000006C01B5BDF854
:104E700000000090BDF800000149088008BD000056
:104E80007E00006C024800890249088070470000DB
:104E9000B20600207E00006C034A10804FF0D8421A
:104EA000A2F88010704700007E00006C1CB5012144
:104EB000202000F033F94FF4C060009001208DF8FD
:104EC000040000208DF8060003208DF80500012065
:104ED0008DF8070069460448FCF7B3FE4FF4C06143
:104EE0000148FCF724FF1CBD0014024070B50024EB
:104EF000002508E00520FCF71DFF0444052000F014
:104F000032FD681CC5B20A2DF4DB0A20B4FBF0F4B4
:104F1000B4F57A6F01D94FF47A642820B4FBF0F02D
:104F2000C0F16400C0B270BD1CB50121202000F0AA
:104F3000F5F88020009003208DF8040000208DF803
:104F4000070069460248FCF77CFEFCF761FC1CBDCB
:104F50000014024070B5002100230F22C4781CB356
:104F6000174C246804F4E064C4F5E064C4F307213A
:104F7000C1F10404E3B20A4144789C40E1B2847870
:104F8000144021430C07210E0E4C0578615504781E
:104F900004F01F050124AC4005786D11AD0005F14A
:104FA000E025C5F8004109E0047804F01F0501245C
:104FB000AC40054D0678761145F8264070BD0000DE
:104FC0000CED00E000E400E080E100E00249014374
:104FD000024A1160704700000000FA050CED00E085
:104FE0002DE9F0478046894617464046FBF79FFA71
:104FF00005464846FBF79BFA06460020454988814E
:1050000017B1281D841901E0A81C841930214148DA
:1050100082898089401C3F4B988118468068815462
:1050200000BF2046E21704EB5262D211A4EBC21279
:10503000D1B2E21704EB5262D411002C01DD41F031
:105040008001344882898089401C324B98811846FF
:1050500080688154002CE4DC2846FCF70CFC2D49C8
:105060008A898989491C2B4B9981194689688854FA
:105070002846FCF7FDFB0146264882898089401CB2
:10508000244B9881184680688154194689681A46CD
:10509000928988182A464146FBF768FA1D4880899C
:1050A00028441C498881F7B11B480088FCF7E3FBC2
:1050B00018498A898989491C164B9981194689683A
:1050C000885415480088FCF7D3FB12498A898989DE
:1050D000491C104B99811946896888540E480088EC
:1050E000401C0D4908800B4989680A4A9289881832
:1050F00032464946FBF73AFA06488089304405496A
:1051000088810B46998998689A6A90470148007B84
:10511000BDE8F087DC0000200801002029B1064A24
:1051200012680243044B1A6004E0034A1268824387
:10513000014B1A60704700003038024029B1064A1E
:1051400012680243044B1A6004E0034A1268824367
:10515000014B1A60704700003838024029B1064AF6
:1051600012680243044B1A6004E0034A1268824347
:10517000014B1A60704700004038024029B1064ACE
:1051800012680243044B1A6004E0034A1268824327
:10519000014B1A60704700004438024029B1064AAA
:1051A00012680243044B1A6004E0034A1268824307
:1051B000014B1A607047000024380240F0B500210E
:1051C00000220024022500260223324F3F6807F008
:1051D0000C0121B1042905D0082937D105E02E4F53
:1051E000076036E02D4F076033E02A4F3F1F3F68CE
:1051F000C7F38056274F3F1F3F6807F03F036EB14C
:10520000264FB7FBF3F7DFF88CC0ACF1040CDCF8E9
:1052100000C0CCF3881C07FB0CF40CE01E4FB7FB5E
:10522000F3F7DFF870C0ACF1040CDCF800C0CCF38D
:10523000881C07FB0CF4174F3F1F3F68C7F301475B
:105240007F1C7D00B4FBF5F7076002E0124F07609A
:1052500000BF00BF0F4F3F6807F0F0010909104F72
:105260007A5C0768D74047600A4F3F6807F4E0510F
:10527000890A0B4F7A5C4768D7408760054F3F68C3
:1052800007F46041490B064F7A5C4768D740C76016
:10529000F0BD0000083802400024F40000127A003B
:1052A0000E0100200BE000BF084A128802F08002C5
:1052B000002AF9D00278054B1B1D1A80401C0A1EDB
:1052C000A1F1010399B2EED17047000000480040FF
:1052D00010B503480221826A0248904710BD0000C1
:1052E000DC000020327700080CB50020019000900F
:1052F0003448006840F480303249086000BF3148CB
:10530000006800F4003000900198401C0190009863
:1053100018B90198B0F5A04FF1D12A48006800F4FF
:10532000003010B10120009001E0002000900098B2
:10533000012846D123484030006840F08050214980
:10534000403108602048006840F440401E49086031
:105350001C48083000681B4908310860084600688E
:1053600040F4004008600846006840F4A05008601F
:105370001648091F0860081F006840F08070091F68
:10538000086000BF0F48006800F000700028F9D0E6
:1053900040F205700E4908600A480830006820F0A5
:1053A00003000849083108600846006840F0020020
:1053B000086000BF03480830006800F00C000828AF
:1053C000F8D10CBD0038024000700040195440076D
:1053D000003C02402DE9F04707468846154600206C
:1053E000594988813846FBF7A2F80646301D0DB1B1
:1053F000012100E00021441855B1822152488289E0
:105400008089401C504B988118468068815409E07F
:10541000A2214D4882898089401C4B4B98811846B7
:105420008068815400BF2046E21704EB5262D2111B
:10543000A4EBC212D1B2E21704EB5262D411002CD9
:1054400001DD41F08001404882898089401C3E4B4B
:105450009881184680688154002CE4DC00221846AC
:1054600081898089401C98811846806842540121B6
:10547000184682898089401C98811846806881542A
:105480003046FCF7F8F930498A898989491C2E4B46
:1054900099811946896888543046FCF7E9F92A4908
:1054A0008A898989491C284B9981194689688854B9
:1054B000194689681A469289881832463946FBF798
:1054C00055F82148808930441F4988814DB10846EC
:1054D00081898089401C1C4A90811046806800F8B0
:1054E0000180194B998998689A6A90474FF0000992
:1054F0000AE0012000F037FA09F1010080B281468C
:10550000B0F5FA7F00DD04E0104890F8C8000028EC
:10551000EFD000BF0D4890F8C80090B100200B49B3
:1055200081F8C8000846007809490978884208D1FE
:105530000648407806494978884202D10120BDE8F2
:10554000F0870020FBE70000DC00002020010020A5
:105550003077000810B51548006840F47000134912
:1055600008601348006840F00100114908600020FD
:105570000F49083108600E4800680E4908400C4980
:1055800008600D48091D0860081F006820F480208D
:10559000091F0860002006490C310860FFF7A4FECF
:1055A0004FF0006001498039086010BD88ED00E0CF
:1055B00000380240FFFFF6FE1030002410B5012134
:1055C000044800F030F8012803D10121014800F01F
:1055D00012F810BD0010004021B1028842F0800294
:1055E000028004E002884FF67F731A400280704701
:1055F000CA4302827047CA430282704721B10288BF
:1056000042F00102028004E002884FF6FE731A4065
:105610000280704702460020138A0B400BB1012024
:1056200000E00020704730B502460020002300242F
:10563000158A05EA0103958905EA010413B10CB145
:10564000012000E0002030BD416270470022028846
:10565000184B98420ED0184B98420BD0B0F1804FA7
:1056600008D0164B984205D0154B984202D0154BE6
:10567000984204D14FF68F731A404B881A43124B4D
:10568000984207D0114B984204D04FF6FF431A407E
:105690000B891A4302804B68C3620B880385054B54
:1056A000984202D0044B984201D18B7A03860123A1
:1056B0008382704700000140000401400004004064
:1056C00000080040000C00400010004000140040A2
:1056D00021B1028842F00202028004E002884FF603
:1056E000FD731A400280704721B1028842F0040223
:1056F000028004E002884FF6FB731A400280704774
:1057000010B540F225511B4800F053F8012817D17D
:105710001848001D0088C4B24CB9202116480288E0
:105720000088401C144B18801448815421E0124812
:1057300001880088401C104A10801048445418E02A
:1057400040F224410B4800F034F8012811D10948F7
:105750000088C4B20748001D0088C4B20020074971
:10576000054A12888854012081F8C80000200249A7
:10577000088010BD004800400400002020010020E7
:1057800021B1828942F40052828104E082894DF67F
:10579000FF731A408281704702460020B1F5007FF6
:1057A00000D100BF13880B400BB1012000E00020A6
:1057B000704770B50246002400230025002040F603
:1057C0006A16B14200D100BFC1F3421501F01F03B8
:1057D000012606FA03F3012D02D19689334006E033
:1057E000022D02D1168A334001E0968A33400C1212
:1057F000012606FA04F41688344013B10CB10120D6
:1058000000E0002070BDF0B503460024002600250E
:10581000002040F66A17B94200D100BF1846C1F314
:10582000421401F01F06012707FA06F5012C01D1E9
:105830000C3004E0022C01D1103000E014301AB119
:1058400007682F43076002E00768AF430760F0BDB9
:105850002DE9FF4705460E460024A14600BFA0469D
:10586000B08900B100BF2C8A24F44054F08804436E
:105870002C82AC8941F20C608443B08831890843A2
:10588000718908430443AC81AC8A24F44074B08924
:105890000443AC826846FFF791FC2048854202D061
:1058A0001F48854202D1DDF80C9001E0DDF8089038
:1058B000A88900F4004040B109EBC90000EB0910D1
:1058C00031684900B0FBF1F707E009EBC90000EBD4
:1058D000091031688900B0FBF1F76420B7FBF0F0E4
:1058E00004012009642101FB1078A88900F400401C
:1058F00040B1322000EBC800B0FBF1F000F007002F
:10590000044308E0322000EB08106421B0FBF1F002
:1059100000F00F0004432C81BDE8FF870010014018
:105920000014014003B401984100009850EAC120DE
:1059300018BF04204A0D18BF40F0010040F2FF726A
:10594000B2EB515F08BF40F00200012808BF0520FC
:1059500002B0704730380A2801D201207047002079
:10596000704700BF70474FF0E021096921F0040142
:105970004FF0E022116145F20821414351610021BD
:1059800091611146096941F00101116100BF4FF0B9
:10599000E021096901F480310029F8D070474FF007
:1059A000E021096921F004014FF0E0221161C0EB10
:1059B000C00101EB4101516100219161114609696A
:1059C00041F00101116100BF4FF0E021096901F4CC
:1059D00080310029F8D0704701464FF0FF30704702
:1059E00070B504460D46E0B200F0C2FD204670BD21
:1059F00070B505460C46E32000F090FC85ED000AEA
:105A0000E52000F08BFC84ED000A70BD10B500F0BD
:105A100053F800F06BF804210D48FCF786F90420D8
:105A2000FFF7BDFF04210A48FCF781F90821084867
:105A3000FCF772F908B1012400E000240420FFF70C
:105A4000AEFF04210248FCF770F9204610BD0000AB
:105A50000014024070B500F02FF800F047F8002461
:105A600020E004211348FCF760F90420FFF797FFBA
:105A700004211048FCF75BF908210E48FCF74CF9AB
:105A800030B1C4F10701012088402843C5B204E0C9
:105A9000C4F107010120884085430420FFF77FFF00
:105AA000601CC4B2082CDCDB04210248FCF73DF981
:105AB000284670BD001402401CB501212020FFF7CC
:105AC0002DFB01208DF804008DF8060004200090C5
:105AD00000208DF8070002208DF805006946024875
